:020000040800F2
:1000000000500020D55900080D1700080F170008F0
:10001000111700081317000815170008000000004A
:10002000000000000000000000000000171700089A
:1000300019170008000000001B1700081D17000812
:100040001D5A00081D5A00081D5A00081D5A0008B4
:100050001D5A00081D5A00081D5A00081D5A0008A4
:100060001D5A00081D5A00081D5A00081D5A000894
:100070005517000845170008851700089517000850
:100080001D5A0008351700081D5A00081D5A00089F
:100090001D5A00081D5A00081D5A00081D5A000864
:1000A0001D5A0008314600081D5A00081D5A000854
:1000B000414600081D5A00081D5A00081D5A000834
:1000C0001D5A00081D5A00081D5A00081D5A000834
:1000D0001D5A00081D5A000875170008651700080A
:1000E0001D5A00081D5A00081D5A00080000000093
:1000F0000000000000000000000000000000000000
:0C01000000000000000000005FF808F1A3
:1001100010B5054C237833B9044B13B10448AFF341
:1001200000800123237010BDCC02002000000000DD
:100130004070000808B5034B1BB103490348AFF3F7
:10014000008008BD00000000D002002040700008C0
:1001500081F0004102E000BF83F0004330B54FEA78
:1001600041044FEA430594EA050F08BF90EA020FE5
:100170001FBF54EA000C55EA020C7FEA645C7FEA78
:10018000655C00F0E2804FEA5454D4EB5555B8BF9B
:100190006D420CDD2C4480EA020281EA030382EA0C
:1001A000000083EA010180EA020281EA0303362D9E
:1001B00088BF30BD11F0004F4FEA01314FF4801C71
:1001C0004CEA113102D0404261EB410113F0004F83
:1001D0004FEA03334CEA133302D0524263EB43033A
:1001E00094EA050F00F0A780A4F10104D5F1200ED8
:1001F0000DDB02FA0EFC22FA05F2801841F1000133
:1002000003FA0EF2801843FA05F359410EE0A5F106
:1002100020050EF1200E012A03FA0EFC28BF4CF037
:10022000020C43FA05F3C01851EBE37101F00045ED
:1002300007D54FF0000EDCF1000C7EEB00006EEBFA
:100240000101B1F5801F1BD3B1F5001F0CD3490884
:100250005FEA30004FEA3C0C04F101044FEA4452DB
:1002600012F5800F80F09A80BCF1004F08BF5FEA62
:10027000500C50F1000041EB045141EA050130BD42
:100280005FEA4C0C404141EB010111F4801FA4F1E5
:100290000104E9D191F0000F04BF01460020B1FA3A
:1002A00081F308BF2033A3F10B03B3F120020CDA72
:1002B0000C3208DD02F1140CC2F10C0201FA0CF050
:1002C00021FA02F10CE002F11402D8BFC2F1200CB5
:1002D00001FA02F120FA0CFCDCBF41EA0C0190406B
:1002E000E41AA2BF01EB0451294330BD6FEA0404B4
:1002F0001F3C1CDA0C340EDC04F11404C4F120029F
:1003000020FA04F001FA02F340EA030021FA04F3B0
:1003100045EA030130BDC4F10C04C4F1200220FA07
:1003200002F001FA04F340EA0300294630BD21FA45
:1003300004F0294630BD94F0000F83F4801306BF0B
:1003400081F480110134013D4EE77FEA645C18BFFF
:100350007FEA655C29D094EA050F08BF90EA020F96
:1003600005D054EA000C04BF1946104630BD91EA8E
:10037000030F1EBF0021002030BD5FEA545C05D191
:100380004000494128BF41F0004130BD14F58004D0
:100390003CBF01F5801130BD01F0004545F0FE4144
:1003A00041F470014FF0000030BD7FEA645C1ABF79
:1003B000194610467FEA655C1CBF0B46024650EAB0
:1003C000013406BF52EA033591EA030F41F40021DC
:1003D00030BD00BF90F0000F04BF0021704730B562
:1003E0004FF4806404F132044FF000054FF0000137
:1003F00050E700BF90F0000F04BF0021704730B5F8
:100400004FF4806404F1320410F0004548BF4042CC
:100410004FF000013EE700BF42004FEAE2014FEA21
:1004200031014FEA02701FBF12F07F4393F07F4FFC
:1004300081F06051704732F07F4208BF704793F0FF
:100440007F4F04BF41F40021704730B54FF4607412
:1004500001F0004521F000411CE700BF50EA010215
:1004600008BF704730B54FF000050AE050EA0102BE
:1004700008BF704730B511F0004502D5404261EB2E
:1004800041014FF4806404F132045FEA915C3FF46F
:10049000D8AE4FF003025FEADC0C18BF03325FEA0C
:1004A000DC0C18BF033202EBDC02C2F1200300FABD
:1004B00003FC20FA02F001FA03FE40EA0E0021FAE2
:1004C00002F11444BDE600BF70B54FF0FF0C4CF4D0
:1004D000E06C1CEA11541DBF1CEA135594EA0C0F82
:1004E00095EA0C0F00F0DEF82C4481EA030621EABD
:1004F0004C5123EA4C5350EA013518BF52EA0335F8
:1005000041F4801143F4801338D0A0FB02CE4FF0A9
:100510000005E1FB02E506F00042E0FB03E54FF0D9
:100520000006E1FB03569CF0000F18BF4EF0010ED1
:10053000A4F1FF04B6F5007F64F5407404D25FEACD
:100540004E0E6D4146EB060642EAC62141EA555180
:100550004FEAC52040EA5E504FEACE2EB4F1FD0CC2
:1005600088BFBCF5E06F1ED8BEF1004F08BF5FEA40
:10057000500E50F1000041EB045170BD06F00046F2
:1005800046EA010140EA020081EA0301B4EB5C049F
:10059000C2BFD4EB0C0541EA045170BD41F4801197
:1005A0004FF0000E013C00F3AB8014F1360FDEBFBC
:1005B000002001F0004170BDC4F10004203C35DA98
:1005C0000C341BDC04F11404C4F1200500FA05F31B
:1005D00020FA04F001FA05F240EA020001F00042BC
:1005E00021F0004110EBD37021FA04F642EB060132
:1005F0005EEA430E08BF20EAD37070BDC4F10C045C
:10060000C4F1200500FA04F320FA05F001FA04F21F
:1006100040EA020001F0004110EBD37041F100010B
:100620005EEA430E08BF20EAD37070BDC4F1200516
:1006300000FA05F24EEA020E20FA04F301FA05F27E
:1006400043EA020321FA04F001F0004121FA04F226
:1006500020EA020000EBD3705EEA430E08BF20EAF6
:10066000D37070BD94F0000F0FD101F00046400030
:1006700041EB010111F4801F08BF013CF7D041EAB2
:10068000060195F0000F18BF704703F000465200B6
:1006900043EB030313F4801F08BF013DF7D043EA87
:1006A0000603704794EA0C0F0CEA135518BF95EA3D
:1006B0000C0F0CD050EA410618BF52EA4306D1D1C4
:1006C00081EA030101F000414FF0000070BD50EAE3
:1006D000410606BF1046194652EA430619D094EA6D
:1006E0000C0F02D150EA013613D195EA0C0F05D157
:1006F00052EA03361CBF104619460AD181EA0301AB
:1007000001F0004141F0FE4141F470014FF0000062
:1007100070BD41F0FE4141F4780170BD70B54FF0FD
:10072000FF0C4CF4E06C1CEA11541DBF1CEA13557D
:1007300094EA0C0F95EA0C0F00F0A7F8A4EB05045F
:1007400081EA030E52EA03354FEA013100F0888056
:100750004FEA03334FF0805545EA131343EA12631F
:100760004FEA022245EA111545EA10654FEA0026D4
:100770000EF000419D4208BF964244F1FD0404F58D
:10078000407402D25B084FEA3202B61A65EB0305E9
:100790005B084FEA32024FF480104FF4002CB6EBA6
:1007A000020E75EB030E22BFB61A754640EA0C0026
:1007B0005B084FEA3202B6EB020E75EB030E22BF66
:1007C000B61A754640EA5C005B084FEA3202B6EBA7
:1007D000020E75EB030E22BFB61A754640EA9C0066
:1007E0005B084FEA3202B6EB020E75EB030E22BF36
:1007F000B61A754640EADC0055EA060E18D04FEAF4
:10080000051545EA16754FEA06164FEAC30343EA93
:1008100052734FEAC2025FEA1C1CC0D111F4801F60
:100820000BD141EA00014FF000004FF0004CB6E759
:1008300011F4801F04BF01430020B4F1FD0C88BFF8
:10084000BCF5E06F3FF6AFAEB5EB030C04BFB6EB03
:10085000020C5FEA500C50F1000041EB045170BDF6
:100860000EF0004E4EEA113114EB5C04C2BFD4EB23
:100870000C0541EA045170BD41F480114FF0000EA7
:10088000013C90E645EA060E8DE60CEA135594EA23
:100890000C0F08BF95EA0C0F3FF43BAF94EA0C0F26
:1008A0000AD150EA01347FF434AF95EA0C0F7FF49B
:1008B00025AF104619462CE795EA0C0F06D152EAEF
:1008C00003353FF4FDAE1046194622E750EA4106D3
:1008D00018BF52EA43067FF4C5AE50EA41047FF4E4
:1008E0000DAF52EA43057FF4EBAE12E74FEA410247
:1008F00012F5001215D211D56FF47873B3EB625272
:1009000012D94FEAC12343F0004343EA505311F098
:10091000004F23FA02F018BF404270474FF000002A
:10092000704750EA013005D111F0004008BF6FF068
:10093000004070474FF00000704700BF4FF0FF3C91
:1009400006E000BF4FF0010C02E000BF4FF0010CC9
:100950004DF804CD4FEA410C7FEA6C5C4FEA430C42
:1009600018BF7FEA6C5C1BD001B050EA410C0CBF91
:1009700052EA430C91EA030F02BF90EA020F0020F3
:10098000704710F1000F91EA030F58BF994208BF5A
:1009900090422CBFD8176FEAE37040F00100704717
:1009A0004FEA410C7FEA6C5C02D150EA013C07D16E
:1009B0004FEA430C7FEA6C5CD6D152EA033CD3D0B9
:1009C0005DF8040B704700BF8446104662468C46B3
:1009D0001946634600E000BF01B5FFF7B7FF0028E6
:1009E00048BF10F1000F01BD4DF808EDFFF7F4FF0F
:1009F0000CBF012000205DF808FB00BF4DF808ED9A
:100A0000FFF7EAFF34BF012000205DF808FB00BFBC
:100A10004DF808EDFFF7E0FF94BF012000205DF8DE
:100A200008FB00BF4DF808EDFFF7CEFF94BF012093
:100A300000205DF808FB00BF4DF808EDFFF7C4FF8C
:100A400034BF012000205DF808FB00BF4FEA410CD5
:100A50007FEA6C5C02D150EA013C0AD14FEA430CB8
:100A60007FEA6C5C02D152EA033C02D14FF00000F5
:100A700070474FF001007047F0B599B086468C463C
:100A800017461D460CAC4B4E0FCE0FC40FCE0FC4F5
:100A900096E80F0084E80F00CDF804E0CDF808C018
:100AA0000397002118E018AA02EB830252F85C0CAD
:100AB00001EB41021A4418AC04EB820252F8306C8C
:100AC00004EB810454F8402C06FB002244F8402C2F
:100AD0000133022BE7DD0131032906DC002318AACC
:100AE00002EB810242F8403CF3E700231C4600E0A1
:100AF0000133032B0BDC18AA02EB830252F8402CC3
:100B0000002AB8BF5242A242F2DB1446F0E7284660
:100B1000FFF770FC06460F462046FFF76BFC0246C7
:100B20000B4630463946FFF7F9FD06460F460024CE
:100B30000FE018AB03EB840555F8400CFFF75AFCA7
:100B400032463B46FFF7C0FCFFF7D0FE45F8500C9D
:100B50000134032CEDDD002304E0174A0244022196
:100B600011710133032B22DC18AA02EB830252F825
:100B7000501C81EAE174A4EBE17403EB43025000E2
:100B80000D4A024454800029E7DB002907DD03EB0E
:100B900043025100084A0A4401211171E1E703EBC5
:100BA00043025100044A0A4403211171D9E700208D
:100BB00019B0F0BD587000082800002000000000A7
:100BC0002DE9F04F85B08246104619462CA3D3E993
:100BD0000023FFF779FC00222B4BFFF79FFD064611
:100BE0000F46DAF804B0DAF80000FFF703FC044619
:100BF0000D463046394604F013FF804689460246CA
:100C00000B4620462946FFF75FFCCDE90201584616
:100C1000FFF7F0FBCDE900013046394604F048FF0C
:100C200006460F4602460B46DDE90001FFF74CFC85
:100C300002460B46DDE90201FFF78EFAFFF756FE8A
:100C4000CAF8000032463B4620462946FFF73CFCE6
:100C500004460D46DDE9002340464946FFF734FCD3
:100C600002460B4620462946FFF778FAFFF73EFE7C
:100C7000CAF80400002005B0BDE8F08FAFF3008093
:100C8000182D4454FB2109400080664008B50268D5
:100C9000436803FB03F302FB0230FFF7ABFB04F0F6
:100CA0004FFFFFF723FE08BD2DE9F04387B006464E
:100CB0000C461546002303930493059308E054F86B
:100CC000232056F82310521A874941F82320013374
:100CD000012BF4DDA068FFF78DFB0022834BFFF7AB
:100CE0001DFD02460B468048FFF76AFFA368002BF4
:100CF0001EDB7F4A1360B368002B1FDB7D4A136045
:100D00007C4B1B687A4A1268991A81EAE170A0EB61
:100D1000E17044F25064A0421EDD002914DDC3F5E9
:100D20000C43A0331344744A13604FF0FF3618E0AD
:100D300003F50C43A0336E4A1360DCE703F50C4364
:100D4000A0336C4A1360DBE7C2F50C42A0321344B7
:100D5000694A1360012604E0002939DD0126664B4B
:100D60001860654B186842F22733984233DD6423DC
:100D70000593059C04FB06F405945B48FFF786FF8A
:100D80000646002D3BD04FF47A630193002CB8BF88
:100D90006442462303FB04F40294042E46DC002341
:100DA0000193019A029B9A4200DD1346534A12684E
:100DB000991A142901DD02F11403504A1360059AAF
:100DC00004990398FFF758FE304607B0BDE8F0835A
:100DD0004FF0FF36C3E76328CBDDC0F50C50283059
:100DE000FFF708FB3EA3D3E90023FFF76DFB0022CA
:100DF0003E4BFFF7B3F9FFF779FD0590B9E7B0F582
:100E00007A7F03DB4FF47A630193BFE7C0F57A7012
:100E1000FFF7F0FA00223A4BFFF756FB0022394B5E
:100E2000FFF79CF9FFF762FD0190AFE72E4B1F68BB
:100E300087EAE772A2EBE7725D6885EAE573A3EBE8
:100E4000E5739A4224DA002444E0274B53F8240047
:100E5000FFF7D0FA804689463846FFF7CBFA0246BC
:100E60000B4600202149FFF759FC024621F00043C0
:100E700040464946FFF728FBFFF738FD404206ABE6
:100E800003EB840343F80C0C0134012CDDDD88E70F
:100E90000024FAE7144B53F82400FFF7ABFA80461E
:100EA00089462846FFF7A6FA02460B4600200F495E
:100EB000FFF734FC024621F0004340464946FFF765
:100EC00003FBFFF713FD404206AB03EB840343F83B
:100ED0000C0C0134012CDDDD63E700BFAFF30080B3
:100EE000AD6824E09B5783BF0C03002000005940ED
:100EF000FC0200201C030020E80200201403002054
:100F0000000008C00040AF40F0B583B0404D2C79E0
:100F10006E7904EB0624AE7906F07F0604EB0644F6
:100F20000460AD79ED091BD1394DEC792E7A04EBD3
:100F300006246E7A06F07F0604EB064444606D7A60
:100F4000ED0910D1324DAC78EE7806F07F0604EB57
:100F500006248460ED78ED0908D1B3B9002417E0C8
:100F600064420460E0E764424460EBE7644284600A
:100F7000F3E7002240F82320264941F823200133DB
:100F8000022BF6DD002003B0F0BD0023F8E70134AA
:100F9000022C0EDC0D5D002DF9D050F8243052F8F3
:100FA00024609B1B1B4F47F8243040F824602B46DD
:100FB000EDE7002208E0174951F8224050F82210CE
:100FC000091B40F822100132022AF4DD002BD9D18E
:100FD000114B1A68114BA3FB02135B09642101FB3F
:100FE0001323092BCED882680C4B83FB02135B11B1
:100FF000D5175C1B642101FB142442680168002C96
:10100000B8BF644200945B1B054803F0ABFBB9E733
:101010004C000020EC020020A80A00201F85EB51A4
:101020009C70000808B500F0FBF8002008BD000027
:1010300000B589B000230593069307938DF810300F
:101040008DF811308DF81230019302930393564BB3
:101050009B7813F0400F02D1544B01221A70524B6F
:101060009B7813F0200F02D1514B01221A704E4B86
:101070009B7813F0400F09D04C4B1B7833B14D4A8D
:10108000136801331360494B00221A70464B9B785A
:1010900013F0200F09D0464B1B7833B1454A136833
:1010A000013B1360424B00221A70002305AA04A9D9
:1010B0004148FFF729FF3C4B9B7813F0400F07D0C6
:1010C00040F6B83301930023029344F25063039334
:1010D000354B9B7813F0200F08D040F2DC5301937E
:1010E000A3F5E163029342F2283303932E4B5B781E
:1010F00013F0010F06D0314B01930023029344F209
:1011000050630393284B9B7813F0100F07D02B4BA1
:1011100001934FF44873029344F250630393224BBC
:101120005B7813F0020F05D0002301934FF4FA729D
:10113000029203930022204901A8FFF7B5FD1A4B44
:101140005B7813F0080F0ED01D4B02221A7740F285
:10115000DC525A83144B5B7813F0040F13D1002038
:1011600009B05DF804FB104B5B7813F0100F06D04C
:10117000134B01221A7740F2DC525A83EAE7104BF4
:1011800003221A77E6E701238DF810308DF811302D
:101190008DF81230002305930693079305AA04A93E
:1011A0000548FFF7B1FEDAE7AC0A0020F80200209C
:1011B000F9020020180300200003002048F4FFFF7C
:1011C00028000020FEE7000008B54FF4A272024993
:1011D000024805F029FF08BDC87000082003002060
:1011E000002209E0930003F1006303F5FE33196860
:1011F000094B43F8221001320C2AF3DD002307E0EB
:10120000064A52F82320044951F823101160013393
:10121000082BF5DD704700BF6404002000000020AB
:1012200008B5FFF7D1FFFFF7DBFF08BD00B583B0BE
:101230001C4B9A6942F001029A619B6903F0010319
:101240000193019B032000F015FB002211466FF073
:101250000B0000F02DFB002211466FF00A0000F099
:1012600027FB002211466FF0090000F021FB00224D
:1012700011466FF0040000F01BFB002211466FF0D6
:10128000030000F015FB002211466FF0010000F092
:101290000FFB002211464FF0FF3000F009FB03B0B6
:1012A0005DF804FB00100240F0B589B003685E4AA7
:1012B000934205D005465D4A934255D009B0F0BD32
:1012C0005B4B9A6942F008029A619B6903F008033C
:1012D0000093009B544A1368C3F30E0313604FF44A
:1012E000407304931123059302230793514C04A9DF
:1012F000204600F097FDE36843F44073E3604D4BF4
:101300009B6803F44073B3F5407FF8D1494AD36832
:1013100023F44073D360474B9B6813F4407FFAD1AA
:101320004FF440730493122305930323079304A9F6
:10133000404800F077FD404A536843F00203536091
:101340003B4BDA6942F40012DA61DB6903F4001303
:101350000193019B344B1A6842F400421A601A68E8
:10136000C2F30E021A60A9E74FF4406304931223FC
:1013700005930323079304A92E4800F053FD2C4B3B
:10138000DA6942F48002DA61DA6902F480020292D8
:10139000029A5A6942F001025A615B6903F0010343
:1013A0000393039B254E264B336000247460B46086
:1013B0008027F76034617461B461F461304600F0F5
:1013C0001DFB2E6375621F4E1F4B3360102373602D
:1013D000B460F76034617461B461F461304600F068
:1013E0000DFBEE627562012221460E2000F060FACC
:1013F0000E2000F0A3FA012221460F2000F058FA37
:101400000F2000F09BFA22462146212000F050FADE
:10141000212000F093FA22462146222000F048FACB
:10142000222000F08BFA49E70054004000580040A9
:1014300000100240000C014000000140AC040020FC
:1014400058000240E40400204400024000B587B088
:1014500003681B4A934205D01A4A93421BD007B037
:101460005DF804FB184BDA6942F00202DA61DB69CD
:1014700003F002030093009BC02302930023039315
:10148000049302A9114800F0CDFC114A536843F4BB
:1014900040635360E3E70C4BDA6942F00402DA611F
:1014A000DB6903F004030193019BC0230293002333
:1014B0000393049302A9074800F0B4FCCFE700BFF0
:1014C00000040040000800400010024000100140ED
:1014D00000000140000C0140F0B58DB003687E4A69
:1014E000934209D004467D4A93422FD07C4A9342CE
:1014F00000F086800DB0F0BD7A4B9A6942F48042CC
:101500009A619A6902F480420192019A9A6942F0C2
:1015100004029A619B6903F004030293029B4FF457
:10152000007308930223099303230B936E4C08A9BD
:10153000204600F077FC4FF4806308930023099362
:101540000A9308A9204600F06DFCD3E7654EF369C5
:1015500043F40033F361F36903F400330393039B13
:10156000B36943F00403B361B36903F00403049364
:10157000049B042308930223099303230B935A4FDC
:1015800008A9384600F04EFC082308930025099569
:101590000A9508A9384600F045FC736943F0010339
:1015A0007361736903F001030593059B4F4E504B24
:1015B000336010277760B5608023F3603561756113
:1015C000B561F561304600F019FA266374620122B4
:1015D0002946112000F06CF9112000F0AFF92A46DD
:1015E0002946384600F064F9384600F0A7F9012290
:1015F0002946262000F05CF9262000F09FF979E7C3
:10160000384BDA6942F48022DA61DA6902F4802226
:101610000692069A9A6942F010029A619B6903F059
:1016200010030793079B4FF48063089302230993E9
:1016300003230B932F4E08A9304600F0F3FB4FF421
:1016400000630893002509950A9508A9304600F023
:10165000E9FB294A536823F0300343F01003536039
:10166000264E274B336010237360B5608027F760E8
:1016700035617561B561F561304600F0BFF92663EB
:101680007462204E204B33607560B560F760356141
:101690007561B5614FF40053F361304600F0AEF967
:1016A000666374622A4629460D2000F001F90D2078
:1016B00000F044F92A4629460C2000F0F9F80C20E5
:1016C00000F03CF901222946272000F0F1F82720FC
:1016D00000F034F90EE700BF00380140004400403C
:1016E000004800400010024000080140540500205E
:1016F0008000024000100140000001408C050020E5
:101700001C0002401C050020300002407047FEE72C
:10171000FEE7FEE7FEE770477047704708B500F048
:101720008DF800F056F9024A13680133136008BDC2
:10173000A80A002008B5024B186B00F03BFA08BD60
:10174000DC01002008B5024B586B00F033FA08BDED
:101750001C02002008B5024B186B00F02BFA08BDE4
:101760001C02002008B5024802F0C5FD08BD00BFFC
:101770001C02002008B5024802F0BDFD08BD00BFF4
:10178000DC01002008B5024BD86A00F013FA08BD4E
:101790001401002008B5024B186B00F00BFA08BDCD
:1017A000140100200F4B1A6842F001021A605968B8
:1017B0000D4A0A405A601A6822F0847222F480327C
:1017C0001A601A6822F480221A605A6822F4FE0213
:1017D0005A604FF41F029A60044B4FF000629A6007
:1017E000704700BF001002400000FFF800ED00E06D
:1017F00010B5044601F012FF064BA3FB0030800930
:1018000000F0B2F8002221464FF0FF3000F050F80F
:10181000002010BDD34D621008B5074A136843F08D
:1018200010031360032000F025F80020FFF7E0FF0D
:10183000FFF7FCFC002008BD00200240024A1368AC
:1018400001331360704700BFC4050020014B1868C6
:10185000704700BFC405002010B582B00190FFF7AB
:10186000F5FF0446FFF7F2FF001B019B9842F9D3F6
:1018700002B010BD10B50446C31E042B0FD80A4A8F
:10188000D36823F4E0631B041B0C240204F4E0641B
:10189000234343F0BF6343F40033D36010BDBA2148
:1018A0000248FFF78FFCEAE700ED00E02472000831
:1018B00070B505460C4616460F2A25D80F2C28D899
:1018C0001B4BDB68C3F30223C3F10702042A28BFC2
:1018D0000422191D062921D9033B4FF0FF3101FADB
:1018E00002F224EA02049C4001FA03F326EA03060A
:1018F0003443002D14DB2401E4B205F1604505F505
:10190000614585F8004370BDD2210A48FFF75AFCB3
:10191000D4E7D3210748FFF755FCD1E70023DCE7E4
:1019200005F00F052401E4B2034B5C55EBE700BF63
:1019300000ED00E02472000814ED00E010B5041E74
:1019400008DB04F01F02640901239340044A42F8B3
:10195000243010BDE6210348FFF734FCF1E700BF57
:1019600000E100E0247200080138B0F1807F0AD263
:10197000064B5860064AF02182F823100020986038
:1019800007221A6070470120704700BF10E000E096
:1019900000ED00E010B50446042800D038B9042C4E
:1019A0000BD0094A136823F00403136010BD4FF4F1
:1019B000DF710648FFF706FCF1E7034A136843F0BE
:1019C00004031360F2E700BF10E000E02472000897
:1019D000704708B5FFF7FCFF08BD10B404686360EA
:1019E0004368102B05D0036899600368DA6010BC67
:1019F000704703689A600368D960F8E7002800F030
:101A0000928010B504460368484A934215D01432B8
:101A1000934212D0143293420FD0143293420CD01E
:101A20001432934209D01432934206D014329342B6
:101A300003D0B5213E48FFF7C5FB636823B1102BE7
:101A400002D0B3F5804F4BD1A368402B01D0002BBF
:101A50004BD1E368802B01D0002B4BD123692BB1F4
:101A6000B3F5807F02D0B3F5007F48D163692BB115
:101A7000B3F5806F02D0B3F5006F45D1A3690BB108
:101A8000202B46D1E36943B1B3F5805F05D0B3F5B0
:101A9000005F02D0B3F5405F40D194F821300BB91C
:101AA00084F82030022384F8213021680A6822F467
:101AB0007F5222F030026368A0680343E06803436A
:101AC0002069034360690343A0690343E06903435A
:101AD00013430B6000206063012384F8213010BDA4
:101AE000B6211348FFF76EFBAEE7B7211048FFF7AA
:101AF00069FBAEE7B8210E48FFF764FBAEE7B921FA
:101B00000B48FFF75FFBB1E7BA210948FFF75AFB23
:101B1000B4E7BB210648FFF755FBB3E7BC210448F7
:101B2000FFF750FBB9E70120704700BF08000240F3
:101B30005C720008F8B590F82040012C35D01D46A5
:101B400016460F460446012380F82030022380F811
:101B500021306A1E4FF6FE739A4220D8206803682F
:101B600023F0010303602B46324639462046FFF737
:101B700034FF2268136843F002031360226813687D
:101B800043F0040313602268136843F008031360F2
:101B90002268136843F0010313600020F8BD40F28F
:101BA00061110348FFF70EFBD8E70220F6E700BFFC
:101BB0005C72000810B50446984B1A68036898498F
:101BC0008B4214D014318B4232D014318B4231D03D
:101BD00014318B4231D014318B4231D014318B42CD
:101BE00002D04FF0006103E04FF4000100E0082153
:101BF0000A423CD01A6812F0080F38D01A6822F056
:101C000008021A602368864A93421FD01432934216
:101C100045D01432934244D01432934244D014320B
:101C2000934244D0143293420DD04FF000620EE044
:101C30008021DDE74FF40061DAE74FF40041D7E798
:101C40004FF40021D4E74FF4000200E00822734B68
:101C50005A60636B43F001036363042384F821300B
:101C6000002384F82030236B0BB1204698476B4B40
:101C70001A6823686A498B421FD014318B4241D0C5
:101C800014318B4240D014318B4240D014318B42FE
:101C900040D014318B420DD04FF080610EE0802295
:101CA000D5E74FF40062D2E74FF40042CFE74FF49C
:101CB0000022CCE74FF4800100E004210A4239D031
:101CC0001A6812F0040F35D01A6812F0200F03D1F1
:101CD0001A6822F004021A602368514A93421FD006
:101CE000143293423ED0143293423DD01432934288
:101CF0003DD0143293423DD0143293420DD04FF078
:101D000080620EE04021D9E74FF48061D6E74FF4BE
:101D10008041D3E74FF48021D0E74FF4800200E008
:101D200004223E4B5A60112384F82130E36A0BB140
:101D300020469847394B1A68236839498B421FD08F
:101D400014318B4241D014318B4240D014318B423C
:101D500040D014318B4240D014318B420DD04FF023
:101D600000710EE04022DCE74FF48062D9E74FF4C7
:101D70008042D6E74FF48022D3E74FF4001100E011
:101D800002210A423ED01A6812F0020F3AD01A68B5
:101D900012F0200F03D11A6822F002021A602368A1
:101DA0001F4A93421FD0143293422CD014329342D4
:101DB0002BD0143293422BD0143293422BD01432B6
:101DC00093420DD04FF000720EE02021D9E74FF47E
:101DD0000071D6E74FF40051D3E74FF40031D0E75C
:101DE0004FF4001200E002220C4B5A60636B6363F5
:101DF000012384F82130002384F82030A36A0BB13A
:101E00002046984710BD2022EEE74FF40072EBE722
:101E10004FF40052E8E74FF40032E5E700000240DB
:101E2000080002402DE9F04383B080460F46B54BD1
:101E3000984213D003F5806398420FD003F5806376
:101E400098420BD003F58063984207D003F5806376
:101E5000984203D0CF21AC48FFF7B4F93B882BB3AD
:101E60007B68012B1ED9112B1CD0022B1AD0122BF0
:101E700018D0A64A934215D002F58012934211D091
:101E800002F5801293420DD0A2F5F812934209D0C8
:101E900002F58012934205D002F58012934201D0E0
:101EA000032B08D14FF000094E46DDE0D0219648C3
:101EB000FFF788F9D4E7D1219348FFF783F9F1E7D9
:101EC000002B5ED0012B05D1FB68013B022B65D8AE
:101ED000D7F80C90FF2C00F296804046FF2C00F2C1
:101EE0009580B20003680F21914023EA010309FAAB
:101EF00002F2134303607B6813F0805F00F0B3804D
:101F0000834B9A6942F001029A619B6903F00103D5
:101F10000193019BB208911C7E4B53F8210006F0FF
:101F2000030399000F238B4020EA0300754B98456B
:101F300072D003F58063984500F0CD8003F580638F
:101F4000984500F0CA8003F58063984562D0042369
:101F500063E0714A934214D00BD9704A934210D077
:101F600002F5803293420CD0A2F580129342B1D197
:101F700007E0A2F58012934203D002F5803293422B
:101F8000A8D1BB68022B2DD8BB68002B38D0012B01
:101F90002ED0C8F814504FF008099BE7E7215A48A3
:101FA000FFF710F994E7EE215748FFF70BF98EE0A1
:101FB000FB68013B022B03D8FB6803F1080989E7A2
:101FC000F5215148FFF7FEF8F6E7FB68013B022BCD
:101FD00003D8FB6803F10C097CE7FC214A48FFF7B2
:101FE000F1F8F6E740F209114748FFF7EBF8CBE7C5
:101FF000C8F810504FF008096CE74FF0000969E786
:102000004FF0040966E708F1040067E7A6F108024B
:10201000920067E7032300E000238B400343023272
:102020003C4941F822307B6813F4803F57D03C4A4A
:102030001368234313607B6813F4003F55D0384A7C
:102040005368234353607B6813F4801F53D0344A92
:102050009368234393607B6813F4001F62D0304A77
:10206000D3681C43D46001360F2E61D80125B540DA
:102070003C682C40A542F6D1224B984513D003F57D
:10208000806398450FD003F5806398450BD003F526
:102090008063984507D003F58063984503D0DF211E
:1020A0001948FFF78FF87B68122B8ED03FF651AF9F
:1020B000022B3FF47DAF7FF603AF032B9DD0112B96
:1020C0007FF408AFFB68013B022B3FF66CAFFB6867
:1020D00003F10409FEE601239FE702239DE7104A6E
:1020E000136823EA04031360A5E70D4A536823EA43
:1020F00004035360A7E70A4A936823EA0403936042
:10210000A9E700BF00080140947200080000111008
:1021100000100240000001400000211000003110BA
:1021200000040140044AD36823EA0404D4609AE717
:1021300003B0BDE8F08300BF0004014070B506465F
:1021400015460C4629B1012D09D875B9240434610E
:1021500070BD4FF4F2710648FFF734F8F3E740F230
:10216000E5110348FFF72EF8EFE73461F0E700BF11
:10217000947200084368124A934209D85800B1FB90
:10218000F0F0C0F30B03032B00D970470420704715
:1021900082685AB903EB4300B1FBF0F040F4004011
:1021A000C0F30B03002BF0D10120EEE703EB83001B
:1021B00000EB8000B1FBF0F040F44040F0E700BFDE
:1021C000A086010003685A6912F4806F0DD05A6925
:1021D00022F480625A6104238363202380F835301F
:1021E000002380F8343001207047002070472DE92B
:1021F000F04106460C4690461D46FFF727FB074672
:10220000B8F1000F1AD043E025B1FFF71FFBC01B48
:10221000A84213D9202386F83530002386F83430BD
:10222000032019E033685B6924EA03039BB200339F
:1022300018BF01237BB1B5F1FF3FE5D1C4F30743DC
:10224000012BEFD033689B6924EA03039BB2003370
:1022500018BF0123EEE70020BDE8F08125B1FFF7AC
:10226000F5FAC01BA84213D9202386F83530002385
:1022700086F834300320EFE733685B6924EA030310
:102280009BB2B3FA83F35B097BB1B5F1FF3FE5D1B4
:10229000C4F30743012BEFD033689B6924EA03039F
:1022A0009BB2B3FA83F35B09EEE70020D4E7F8B5FD
:1022B00004460D461646FFF7C9FA074631E01A688C
:1022C00042F400721A602268536923F480635361F8
:1022D0000423A363202384F83530002384F83430AA
:1022E00001202CE026B1FFF7B1FAC01BB04218D98B
:1022F000202384F83530002384F8343003201EE096
:1023000023685B6925EA03039BB2003318BF0123EE
:10231000A3B123685A6912F4806FD0D1B6F1FF3FA0
:10232000E0D1C5F30743012BEAD023689B6925EA76
:1023300003039BB2003318BF0123E9E70020F8BD77
:1023400070B504460D4616460268136843F4807360
:102350001360334600224FF00111FFF748FF48BBDE
:102360002369B3F5804F0FD1236805F0FE051D6189
:10237000324614492046FFF79AFF0346D8B1A36BB3
:10238000042B1CD1012316E0EB11226803F0060395
:1023900043F0F003136132460B492046FFF787FFF5
:1023A00020B1A36B042B08D1012304E02368EDB214
:1023B0001D61DDE70323184670BD0323FBE70323FC
:1023C000F9E700BF0200010008000100F0B583B08A
:1023D00004460D4616460268136843F48063136092
:1023E0000268136843F480731360334600224FF091
:1023F0000111FFF7FCFE00284CD12369B3F5804F93
:1024000011D1236845F00105EDB21D61324627491F
:102410002046FFF74CFF034600283CD0A36B042B5B
:1024200042D1012337E0EF1107F00607236847F098
:10243000F0021A6132461E492046FFF738FF20B1EC
:10244000A36B042B2AD1012325E02368EDB21D6183
:10245000324616492046FFF72AFF20B1A36B042B12
:102460001ED1012317E023685A6901929A690192EB
:10247000019A1A6842F480721A60334600224FF0C3
:1024800001112046FFF7B3FE60B9236847F0F1075A
:102490001F61BBE70323184603B0F0BD0323FAE72F
:1024A0000323F8E70323F6E70323F4E70200010020
:1024B0000800010070B504460D46FFF7C7F906464F
:1024C00023685B6913F0800F18D12046FFF77AFE6E
:1024D000B0B9B5F1FF3FF3D025B1FFF7B7F9801BD5
:1024E000A842EDD9A36B43F02003A363202384F813
:1024F0003530002384F83430032000E0002070BD24
:102500000120FCE770B504460D46FFF79FF906462B
:1025100023685B6913F0040F18D12046FFF752FEC1
:10252000B0B9B5F1FF3FF3D025B1FFF78FF9801BAC
:10253000A842EDD9A36B43F02003A363202384F8C2
:102540003530002384F83430032000E0002070BDD3
:102550000120FCE7002800F0B38038B5044603688A
:10256000584A934208D002F58062934204D04FF457
:10257000A5715548FEF726FE6368013B534A934216
:102580005ED8A36813B1B3F5804F5FD1E36823F43D
:102590007F7323F00303002B5ED12369B3F5804FD3
:1025A00002D0B3F5404F5DD16369012B60D8A369B8
:1025B00033F0FE0362D1E3690BB1402B64D1236A8F
:1025C0000BB1802B66D194F83530002B68D02423D2
:1025D00084F835302268136823F00103136001F09A
:1025E00023F801463A4BA3FB00239B0C226853605F
:1025F0006068384A904259D80133226813622568CE
:102600002046FFF7B7FDE861E369216A22680B43C2
:1026100013602369E16822680B4393606369A169D1
:1026200022680B43D3602268136843F001031360F0
:102630000020A063202384F8353084F8360038BDAC
:1026400040F24B112048FEF7BDFD9AE74FF4A6710A
:102650001D48FEF7B7FD99E740F24D111A48FEF705
:10266000B1FD9AE74FF4A7711748FEF7ABFD9BE762
:1026700040F24F111448FEF7A5FD98E74FF4A871FA
:102680001148FEF79FFD96E740F251110E48FEF704
:1026900099FD94E74FF4A9710B48FEF793FD92E77B
:1026A00084F834302046FEF7FFFD90E74FF4967231
:1026B00002FB03F3084AA2FB03239B0901339CE7B7
:1026C0000120704700540040CC7200087F1A0600B9
:1026D00083DE1B43A0860100D34D6210F0B583B0AA
:1026E0001E4690F83530DBB2202B7FD104460F46D2
:1026F0001546002A7ED00EB9012378E042F210730D
:1027000001224149FFF773FD002875D194F8343058
:10271000012B73D0012384F834302268136823F42A
:1027200000631360212384F83530102384F8363099
:102730000023A363089A39462046FFF701FE60B1E3
:10274000A36B042B04D1002384F8343001234EE022
:10275000002384F83430032349E023685A69019246
:102760009B690193019B0BE0A36B042B48D122686A
:10277000136843F400731360012338E01E461546C6
:10278000C6B108992046FFF795FE0028ECD16A1CD7
:10279000236829781961731E9BB22168486910F07B
:1027A000040FEBD0002BE9D0AA1C6B780B61023E22
:1027B000B3B2E3E708992046FFF7A4FE034648B109
:1027C000A36B042B1ED12268136843F400731360BB
:1027D00001230CE021680A6842F400720A6020229A
:1027E00084F83520002284F8342000E002231846C3
:1027F00003B0F0BD0123FAE70223F8E70223F6E76E
:102800000323F4E70323F2E702001000F0B583B0DE
:1028100090F83540E4B2202C57D1002A59D00BB99A
:10282000012353E01E4615460F46044642F210733C
:1028300001222B49FFF7DBFC00284CD194F83430FF
:10284000012B4AD0012384F834302268136823F422
:1028500000631360212384F83530102384F8363068
:102860000023A363656226856685E36A1D4A9A6232
:10287000E36A1D4A1A632268334610322946E06A29
:10288000FFF758F9232239462046FFF759FD034642
:1028900060B1A36B042B04D1002384F834300123EE
:1028A00014E0002384F8343003230FE021684A68E1
:1028B00042F400624A602268516901919269019272
:1028C000019A002284F8342000E00223184603B065
:1028D000F0BD0123FAE70223F8E70223F6E700BF81
:1028E00002001000112A0008E7290008F0B583B0A3
:1028F00090F83540E4B2202C64D1002A66D00BB9A0
:10290000012260E01E4615460F46044642F210734F
:1029100001223149FFF76BFC002859D194F834307B
:10292000012B57D0012384F834302268136823F434
:1029300000631360222384F83530102384F8363086
:102940000023A363656226856685236B234A9A620A
:10295000236B234A1A63216833462A461031206BC1
:10296000FFF7E8F8232239462046FFF72FFD0246FD
:1029700060B1A36B042B04D1002384F8343001220E
:1029800021E0002384F8343003221CE0012E13D010
:1029900021684B6843F480534B6021684B6843F4D3
:1029A00000634B602368596901919B690193019B06
:1029B000002384F8343006E021680B6823F4806338
:1029C0000B60EAE70222104603B0F0BD0122FAE7ED
:1029D0000222F8E70222F6E702001000652A00084A
:1029E000E7290008704708B5406A0268136823F4B5
:1029F0008063136000234385202280F8352080F80F
:102A00003630836B43F010038363FFF7EBFF08BDA1
:102A100010B5446A2323002211492046FFF7E7FB43
:102A200018B1A36B43F02003A3632268136843F437
:102A3000007313602268536823F40063536000231B
:102A40006385202284F8352084F83630A36B1BB9C7
:102A5000204602F0B3FF10BD2046FFF7C3FFFAE7A0
:102A60000400010008B5406A0268136823F480631B
:102A700013600268136843F40073136002685368BC
:102A800023F4805353600268536823F40063536057
:102A900000234385202280F8352080F83630836B70
:102AA00013B902F091FF08BDFFF79CFFFBE77047E9
:102AB000002844D010B504460268234B9A4203D044
:102AC000A6212248FEF77EFB6368062B28D8A36860
:102AD000B3F5805F29D22368DA6812F0010F03D0C2
:102AE000DB6813F0020F2CD1637B1BB302236373EB
:102AF000236845F255521A602268536823F0070391
:102B000061680B4353602268936823F47F6323F06A
:102B10000F03A1680B43936001236373002010BD72
:102B2000A7210A48FEF74EFBD1E7A8210748FEF788
:102B300049FBD0E723732046FFF7B9FFD6E7012012
:102B400070470120EBE700BF00300040047300082D
:102B5000037B012B0FD00223437303684CF6CC4256
:102B60001A6003684AF6AA221A60012343730023FD
:102B70000373184670470220704738B5037B012B5A
:102B80001FD004460123037302234373FEF75EFE46
:102B900005462368DA6812F0020F0AD0FEF756FEE7
:102BA000401BB0F57A7FF4D90320607300232373B0
:102BB00006E04AF6AA221A600123637300202073FC
:102BC00038BD0220FCE7000030B583B0044688B36E
:102BD000236813B113F00F0F32D0236813F0010FE5
:102BE00056D063682BB1B3F5803F02D0B3F5A02F68
:102BF0002CD1C64B5B6803F00C03042B31D0C34BC4
:102C00005B6803F00C03082B26D06368B3F5803FA4
:102C100000F08380002B40F0A58003F1804303F592
:102C200004331A6822F480321A601A6822F480226F
:102C30001A6077E04FF48771B548FEF7C3FAC7E72B
:102C400040F20F11B248FEF7BDFAC6E740F2151187
:102C5000AF48FEF7B7FACCE7AC4B5B6813F4803FA4
:102C6000D3D04FF4003393FAA3F3A84B1A684FF470
:102C7000003393FAA3F3B3FA83F303F01F0322FAAA
:102C800003F313F0010F03D06368002B00F02083DF
:102C9000236813F0020F00F0D3802369012B00F2A8
:102CA000998063691F2B00F29B80984B5B6813F03F
:102CB0000C0F00F0A180954B5B6803F00C03082B10
:102CC00000F094802369002B00F0F880012292FA32
:102CD000A2F3B3FA83F39B0003F1844303F5840367
:102CE0001A60FEF7B3FD0546022393FAA3F3874B60
:102CF0001A68022393FAA3F3B3FA83F303F01F03D2
:102D000022FA03F313F0010F40F0C980FEF79EFD95
:102D1000401B0228E8D90320E1E27C4A136843F40F
:102D2000803313606368002B36D0FEF78FFD0546B5
:102D30004FF4003393FAA3F3744B1A684FF4003343
:102D400093FAA3F3B3FA83F303F01F0322FA03F316
:102D500013F0010F9CD1FEF779FD401B6428E7D9E1
:102D60000320BCE2B3F5A02F09D0684B1A6822F407
:102D700080321A601A6822F480221A60D2E703F1C6
:102D80008043A3F53C331A6842F480221A601A6823
:102D900042F480321A60C5E7FEF758FD05464FF44D
:102DA000003393FAA3F3594B1A684FF4003393FAA4
:102DB000A3F3B3FA83F303F01F0322FA03F313F030
:102DC000010F3FF465AFFEF741FD401B6428E6D9D3
:102DD000032084E240F249114D48FEF7F3F960E721
:102DE0004FF4A5714A48FEF7EDF95EE7474B5B6883
:102DF00013F4803F7FF466AF022393FAA3F3434BAF
:102E00001A68022393FAA3F3B3FA83F303F01F03C0
:102E100022FA03F313F0010F04D02369012B01D030
:102E200001205CE23948036823F0F8036169F82265
:102E300092FAA2F2B2FA82F201FA02F213430360AA
:102E4000236813F0080F70D0A369012B64D8A3691D
:102E5000002B00F09280012292FAA2F3B3FA83F3DE
:102E60002C4941F82320FEF7F1FC0546022393FA92
:102E7000A3F293FAA3F2254A526A93FAA3F3B3FAA0
:102E800083F303F01F0322FA03F313F0010F49D178
:102E9000FEF7DCFC401B0228E8D903201FE21B4898
:102EA000036823F0F8036169F82292FAA2F2B2FAF9
:102EB00082F201FA02F213430360C1E7012393FA9D
:102EC000A3F3B3FA83F39B0003F1844303F5840374
:102ED00000221A60FEF7BAFC0546022393FAA3F318
:102EE0000A4B1A68022393FAA3F3B3FA83F303F0AD
:102EF0001F0322FA03F313F0010FA1D0FEF7A6FC83
:102F0000401B0228E9D90320E9E100BF001002407C
:102F10003C730008800442424FF4C571AC48FEF790
:102F200051F994E70120FEF797FC236813F0040F92
:102F300000F0CF80E368012B01D9052B42D1A54BCE
:102F4000DA6942F08052DA61DB6903F08053019361
:102F5000019BA14A136843F480731360FEF776FC6B
:102F600005469D4B1B6813F4807F31D1FEF76EFC44
:102F7000401B6428F5D90320B1E1012393FAA3F3A0
:102F8000B3FA83F3954A002142F82310FEF75EFC62
:102F90000546022393FAA3F293FAA3F28D4A526AEA
:102FA00093FAA3F3B3FA83F303F01F0322FA03F3B4
:102FB00013F0010FB9D0FEF749FC401B0228E8D9F5
:102FC00003208CE140F2B7118148FEF7FBF8B6E729
:102FD000E368012B0DD0C3B903F1804303F504333B
:102FE0001A6A22F001021A621A6A22F004021A62B4
:102FF00004E0784A136A43F001031362E368002B8C
:103000003ED0FEF723FC05462BE0052B09D0714B83
:103010001A6A22F001021A621A6A22F004021A6283
:10302000ECE76C4B1A6A42F004021A621A6A42F028
:1030300001021A62E2E7674B1A6A022393FAA3F3CA
:10304000B3FA83F303F01F0322FA03F313F0010F23
:103050003FD1FEF7FBFB401B41F28833984200F260
:103060003981022393FAA3F293FAA3F3B3FA83F319
:103070005B0943F00203022BDDD0564B5A6ADCE7B2
:10308000FEF7E4FB054615E0524B1A6A022393FA59
:10309000A3F3B3FA83F303F01F0322FA03F313F04D
:1030A000010F16D0FEF7D2FB401B41F28833984245
:1030B00000F21281022393FAA3F293FAA3F3B3FA74
:1030C00083F35B0943F00203022BDDD0414B5A6AC4
:1030D000DCE7E369022B68D8E369002B00F0FE808F
:1030E0003C4A526802F00C02082A00F0FA80022BD7
:1030F00040F0C280236A13B1B3F5803F5BD1636AAD
:103100004BB3B3F5802F26D0B3F5002F23D0B3F502
:10311000402F20D0B3F5801F1DD0B3F5A01F1AD0CB
:10312000B3F5C01F17D0B3F5E01F14D0B3F5001FDF
:1031300011D0B3F5101F0ED0B3F5201F0BD0B3F58F
:10314000301F08D0B3F5401F05D0B3F5501F02D093
:10315000B3F5601F35D14FF0807393FAA3F3B3FA40
:1031600083F39B0003F1844303F5840300221A6078
:10317000FEF76CFB05464FF0007393FAA3F3154B73
:103180001A684FF0007393FAA3F3B3FA83F303F0D2
:103190001F0322FA03F313F0010F21D0FEF756FBB1
:1031A000401B0228E7D9032099E040F24721084854
:1031B000FEF708F890E74FF414710548FEF702F89F
:1031C0009DE740F251210248FDF7FCFFC3E700BF35
:1031D0003C7300080010024000700040800442422E
:1031E000236AB3F5803F32D03F494B6823F4741310
:1031F000226A606A024313434B604FF0807393FA74
:10320000A3F3B3FA83F39B0003F1844303F5840330
:1032100001221A60FEF71AFB04464FF0007393FA7E
:10322000A3F3314B1A684FF0007393FAA3F3B3FA88
:1032300083F303F01F0322FA03F313F0010F19D1F4
:10324000FEF704FB001B0228E7D9032047E0A36830
:1032500013B1B3F5003F07D1234A536823F4003379
:10326000A1680B435360BFE740F267211F48FDF799
:10327000A9FFF1E7002032E04FF0807393FAA3F347
:10328000B3FA83F39B0003F1844303F58403002224
:103290001A60FEF7DBFA04464FF0007393FAA3F3CB
:1032A000114B1A684FF0007393FAA3F3B3FA83F348
:1032B00003F01F0322FA03F313F0010F06D0FEF709
:1032C000C5FA001B0228E7D9032008E0002006E029
:1032D000012004E0032002E0032000E0002003B00E
:1032E00030BD0120FBE700BF001002403C73000826
:1032F00010B487B01D4C94E80F000DF1180C0CE9C8
:103300000F00238AADF80430194B596801F00C0303
:10331000082B28D101F470134FF4701292FAA2F224
:10332000B2FA82F2D340634413F8100C11F4803FD8
:1033300005D1104B03FB00F007B010BC70470C4BDD
:103340005B6803F400334FF4003292FAA2F2B2FA4F
:1033500082F2D340634413F8142C074BB3FBF2F30F
:1033600000FB03F0E8E70448E6E700BF88700008C8
:103370000010024000093D0000127A0070B50D46B1
:103380000446C0B1236813F00F0F1AD0022D1ED8C7
:103390009D4B1B6803F00703AB421ED29A4A136889
:1033A00023F007032B431360136803F00703AB42BA
:1033B00013D0012070BD4FF42F719448FDF702FF28
:1033C000E0E740F2BD219148FDF7FCFEDEE740F268
:1033D000BE218E48FDF7F6FEDAE7236813F0020FF0
:1033E00018D0A3687BB1802B0DD0902B0BD0A02BD5
:1033F00009D0B02B07D0C02B05D0D02B03D0E02BA9
:1034000001D0F02B41D1824A536823F0F003A16828
:103410000B435360236813F0010F00F08A80636848
:10342000022B38D86368012B3BD0022B4ED00222EE
:1034300092FAA2F2764A1168022292FAA2F2B2FA43
:1034400082F202F01F0221FA02F212F0010F00F0E4
:10345000D8806F494A6822F0030213434B60FEF79D
:10346000F5F906466368012B45D0022B52D0684B14
:103470005B6813F00C0F5CD0FEF7E8F9801B41F29B
:1034800088339842F3D9032094E740F2D7215F486C
:10349000FDF798FEB7E740F2DE215C48FDF792FEAB
:1034A000C0E74FF4003292FAA2F2594A11684FF481
:1034B000003292FAA2F2B2FA82F202F01F0221FA6C
:1034C00002F212F0010FC4D1012073E74FF0007235
:1034D00092FAA2F24E4A11684FF0007292FAA2F2EA
:1034E000B2FA82F202F01F0221FA02F212F0010F88
:1034F000AFD101205EE7464B5B6803F00C03042B61
:1035000017D0FEF7A3F9801B41F288339842F2D915
:1035100003204FE73E4B5B6803F00C03082B08D0F9
:10352000FEF794F9801B41F288339842F2D90320C8
:1035300040E7354B1B6803F00703AB420CD9324A16
:10354000136823F007032B431360136803F007038A
:10355000AB4201D001202DE7236813F0040F14D0F3
:10356000E3685BB1B3F5806F08D0B3F5A06F05D009
:10357000B3F5C06F02D0B3F5E06F36D1244A53687B
:1035800023F4E063E1680B435360236813F0080FF2
:1035900015D023695BB1B3F5806F08D0B3F5A06F88
:1035A00005D0B3F5C06F02D0B3F5E06F23D1184A50
:1035B000536823F46053216943EAC1035360FFF762
:1035C00097FE134B5B6803F0F003F02292FAA2F22D
:1035D000B2FA82F2D3400F4AD35CD8400E4B186047
:1035E0000020FEF705F90020E4E640F232310748FA
:1035F000FDF7E8FDC2E740F239310448FDF7E2FD8E
:10360000D5E70120D6E600BF002002403C73000849
:10361000001002400C72000858000020014B18688E
:10362000704700BF5800002008B5FFF7F7FF074BB1
:103630005B6803F4E0634FF4E06292FAA2F2B2FA3C
:1036400082F2D340024AD35CD84008BD0010024049
:103650001C72000808B5FFF7E1FF074B5B6803F435
:1036600060534FF4605292FAA2F2B2FA82F2D3405F
:10367000024AD35CD84008BD001002401C7200080A
:10368000F0B583B00446036813F0130F2CD0236801
:1036900013F0010F5CD0636843B1B3F5807F05D0B0
:1036A000B3F5007F02D0B3F5407F22D1594BDA69E0
:1036B00042F08052DA61DB6903F080530193019B91
:1036C000554A136843F480731360FEF7BFF805464C
:1036D000514B1B6813F4807F10D1FEF7B7F8401BE5
:1036E0006428F5D903205BE07E214C48FDF76AFD94
:1036F000CDE784214948FDF765FDD7E7454B1B6AB7
:1037000013F440731DD0626802F440729A4218D0DC
:103710004048016A21F440764FF4803393FAA3F2D3
:10372000B2FA82F23E4D012745F8227093FAA3F3D4
:10373000B3FA83F3002245F82320066211F0010F4B
:1037400030D1344A136A23F4407361680B43136227
:10375000236813F0020F11D0A36843B1B3F5804F73
:1037600005D0B3F5004F02D0B3F5404F42D1294AFE
:10377000536823F44043A1680B435360236813F05C
:10378000100F44D0E368B3F5800F01D0002B36D181
:10379000204A536823F48003E1680B435360002000
:1037A00003B0F0BDFEF752F8054614E0194B1A6A53
:1037B000022393FAA3F3B3FA83F303F01F0322FA6D
:1037C00003F313F0010FBCD1FEF740F8401B41F2A8
:1037D0008833984219D8022393FAA3F293FAA3F3F9
:1037E000B3FA83F35B0943F00203022BDED0094BEB
:1037F0005A6ADDE7BA210948FDF7E4FCB7E74FF460
:103800008B710648FDF7DEFCC2E70320C8E7002005
:10381000C6E700BF0010024000700040747300084B
:103820000004424210B504460368104A93420FD088
:10383000B3F1804F0CD0A2F59432934208D002F538
:103840008062934204D04FF498710948FDF7BAFCA6
:10385000022384F839302268136843F001031360AF
:10386000012384F83930002010BD00BF002C014036
:10387000AC7300087047704770477047704710B5C9
:10388000044603681A6912F0020F11D0DA6812F0C8
:10389000020F0DD06FF002021A6101230376036854
:1038A0009B6913F0030F70D0FFF7E6FF0023237628
:1038B00023681A6912F0040F12D0DA6812F0040FAC
:1038C0000ED06FF004021A610223237623689B69ED
:1038D00013F4407F5FD02046FFF7CEFF002323760E
:1038E00023681A6912F0080F12D0DA6812F0080F74
:1038F0000ED06FF008021A61042323762368DB6977
:1039000013F0030F4ED02046FFF7B6FF00232376B7
:1039100023681A6912F0100F12D0DA6812F0100F33
:103920000ED06FF010021A61082323762368DB693A
:1039300013F4407F3DD02046FFF79EFF00232376FF
:1039400023681A6912F0010F03D0DA6812F0010F30
:1039500036D123681A6912F0800F03D0DA6812F0AA
:10396000800F34D123681A6912F0400F03D0DA684F
:1039700012F0400F32D123681A6912F0200F03D0E1
:10398000DA6812F0200F30D110BDFFF774FF204627
:10399000FFF773FF8AE72046FFF76DFF2046FFF72A
:1039A0006CFF9BE72046FFF766FF2046FFF765FFA9
:1039B000ACE72046FFF75FFF2046FFF75EFFBDE75D
:1039C0006FF001021A612046FFF754FFC1E76FF064
:1039D00080021A61204600F072F9C3E76FF04002DE
:1039E0001A612046FFF74AFFC5E76FF020021A610F
:1039F000204600F063F9C7E70368194A90420AD0ED
:103A0000B0F1804F07D0A2F59432904203D002F576
:103A10008062904203D123F070034A681343104A36
:103A200090420AD0B0F1804F07D0A2F59432904274
:103A300003D002F58062904203D123F44073CA6838
:103A4000134303608B68C3620B688362044B984224
:103A500002D00123436170470B690363F9E700BF9C
:103A6000002C0140002800F0C180F8B505460C4646
:103A700003685F4A93420FD0B3F1804F0CD0A2F598
:103A80009432934208D002F58062934204D040F60B
:103A9000CC015848FDF796FB2368013B022B69D8FF
:103AA000A368013B022B6BD8A369013B022B6DD8A5
:103AB00063681BB1022B01D00A2B6DD163691BB166
:103AC000022B01D00A2B6DD1E3682BB1042B03D05C
:103AD000082B01D00C2B6BD1E3692BB1042B03D045
:103AE000082B01D00C2B69D123690F2B6CD8236ACA
:103AF0000F2B6FD895F83930002B71D0022385F841
:103B00003930294651F8042B936823F0070393605A
:103B10002868FFF771FF29688A688E690F6A206834
:103B2000104326F4407626F00306A268A36942EA11
:103B30000323334323F47C4323F0FC03E668E26968
:103B400046EA02261E43226A1303226943EA02134D
:103B5000334327F0AA076268646942EA04123A43D1
:103B6000886029688B612B681A62012385F83930D7
:103B70000020F8BD40F6CD011E48FDF723FB8FE77E
:103B800040F6CE011B48FDF71DFB8DE740F6CF0147
:103B90001848FDF717FB8BE74FF40D611548FDF74B
:103BA00011FB8BE740F6D1011248FDF70BFB8BE7C9
:103BB00040F6D2010F48FDF705FB8DE740F6D30133
:103BC0000C48FDF7FFFA8FE740F6D4010948FDF7EE
:103BD000F9FA8CE740F6D5010648FDF7F3FA89E7D4
:103BE00085F838302846FDF731FC87E7012070471B
:103BF000002C0140AC73000838B504460D4603683C
:103C00002C4A93420FD0B3F1804F0CD0A2F59432DE
:103C1000934208D002F58062934204D040F28C6156
:103C20002548FDF7CFFA2B686BB1102B0BD0202B5A
:103C300009D0302B07D0402B05D0502B03D0602B60
:103C400001D0702B27D16B68802B00D04BBB94F830
:103C50003830012B2BD0012284F83820022384F83D
:103C6000393021684B6823F070034B6021684B6842
:103C7000286803434B6021688B6823F080038B60C6
:103C800021688B68686803438B6084F839200020C2
:103C900084F8380038BD40F28D610748FDF792FA8C
:103CA000D1E740F28E610448FDF78CFACFE702209D
:103CB000F0E700BF002C0140E47300087047704734
:103CC00090F83930DBB2122B01D0322B2AD1836825
:103CD000B3F5805F16D0036A5A1C02621A78036833
:103CE0005A60C38C013B9BB2C384EBB90268D368B2
:103CF00023F08003D3600268D36843F04003D360AD
:103D000000207047036A1B880268C3F308035360EE
:103D100003691BB9036A02330362E2E7036A0133F2
:103D20000362DEE702207047002070472DE9F84368
:103D3000044642687E4B9A4200F29080E3681BB1D1
:103D4000B3F5005F40F09080236933B1B3F5806F25
:103D500003D0B3F5C06F40F08D80636933F00C027F
:103D600000D123B940F255717248FDF72BFA226851
:103D7000136923F44053E1680B431361A36822697C
:103D8000134362691A432168CB6823F4B05323F0CC
:103D90000C031343CB602268536923F44073A16979
:103DA0000B4353612268644B9A4269D0FFF73CFC95
:103DB00000EB800000EB80006568AD00B0FBF5F51E
:103DC0005E4FA7FB05356D092E01FFF72DFC00EBBB
:103DD000800000EB80006568AD00B0FBF5F9FFF7EF
:103DE00023FC00EB800000EB80006568AD00B0FBB9
:103DF000F5F5A7FB05356D094FF0640808FB15952F
:103E00002D013235A7FB05356D0905F0F005354468
:103E1000FFF70AFC00EB800000EB80006668B6004C
:103E2000B0FBF6F6FFF700FC00EB800000EB800033
:103E300063689B00B0FBF3F0A7FB0030400908FB70
:103E400010684FEA081808F13208A7FB0837C7F3D3
:103E5000431723682F449F60BDE8F88340F25271F6
:103E60003448FDF7AFF969E740F253713148FDF787
:103E7000A9F969E740F254712E48FDF7A3F96CE700
:103E8000FFF7E8FB00EB800000EB80006568AD0009
:103E9000B0FBF5F5294FA7FB05356D092E01FFF79E
:103EA000D9FB00EB800000EB80006568AD00B0FB43
:103EB000F5F9FFF7CFFB00EB800000EB80006568B1
:103EC000AD00B0FBF5F5A7FB05356D094FF06408B3
:103ED00008FB15952D013235A7FB05356D0905F059
:103EE000F0053544FFF7B6FB00EB800000EB8000E7
:103EF0006668B600B0FBF6F6FFF7ACFB00EB80009F
:103F000000EB800063689B00B0FBF3F0A7FB003080
:103F1000400908FB10684FEA081808F13208A7FBAF
:103F20000837C7F3431723682F449F6094E700BF07
:103F300020AA44001C740008003801401F85EB5182
:103F4000002872D010B5044683690BB30368384A61
:103F500093420CD0A2F57442934208D002F58062DD
:103F6000934204D040F207113248FDF72BF9A369C0
:103F7000FBB1B3F5807F1CD0B3F5007F19D0B3F54A
:103F8000407F16D04FF484712A48FDF71BF910E0EA
:103F90000368274A93420CD0A2F57442934208D09A
:103FA00002F58062934204D04FF486712148FDF7F8
:103FB00009F9A36813B1B3F5805F24D1E36943BB6A
:103FC00094F839305BB3022384F839302268D3681F
:103FD00023F40053D3602046FFF7A8FE226813693C
:103FE00023F4904313612268536923F02A03536139
:103FF0002268D36843F40053D3600020E0630123B8
:1040000084F8393010BD4FF487710A48FDF7DAF8AB
:10401000D4E740F20F110748FDF7D4F8D0E784F851
:1040200038302046FDF758FACDE70120704700BF31
:10403000003801401C74000810B590F83940E4B213
:10404000012C01D0222C38D1002938D0002A38D0B8
:1040500090F83830012B36D0012380F838300162D7
:104060008284C2840023C36390F83930DBB2222BF0
:104070001FD0122380F8393013460446026B1348D0
:104080009062226B1248D062226B12481063226841
:104090000432206BFDF74EFD23686FF040021A607A
:1040A0002268536943F080035361002084F838008C
:1040B00004E0322380F83930DEE7022010BD012011
:1040C000FCE70120FAE70220F8E700BF7141000891
:1040D000CF410008D942000810B590F83940E4B249
:1040E000012C01D0122C34D1002934D0002A34D034
:1040F00090F83830012B32D0012380F838308162BB
:1041000082850023C36390F83930DBB2122B1CD0B8
:10411000222380F8393013460A460446416B114881
:104120008862616B1048C862616B1048086321683F
:104130000431606BFDF7FEFC2268536943F04003D5
:104140005361002084F8380004E0322380F83930CD
:10415000E1E7022010BD0120FCE70120FAE7022080
:10416000F8E700BFD9410008CD420008D942000855
:1041700008B5436A0268126812F0200F0CD10022C1
:10418000DA8419684A6922F080024A611A68D368A1
:1041900043F04003D36008BD184601F00BFCFAE77A
:1041A00008B50268D36823F04003D36090F8393033
:1041B000DBB2322B06D0012380F8393001F0FAFB54
:1041C000002008BD222380F83930F7E7704708B592
:1041D000406AFFF7FBFF08BD08B5436A0268126832
:1041E00012F0200F0ED10022DA8519684A6922F0F8
:1041F00040024A6193F83920D2B2322A06D0012215
:1042000083F83920184601F0B1FB08BD122283F86B
:104210003920F7E708B590F83930DBB2222B01D00E
:10422000322B4ED18368B3F5805F29D00369002B10
:104230003AD103685A68836A591C81621A70C38D27
:10424000013B9BB2C385002B3DD10268D36823F0AC
:104250002003D36090F83930DBB2322B2DD00268C6
:10426000D36823F48073D3600268536923F0010399
:104270005361012380F8393001F078FB002008BD3C
:10428000826A036943B903685B68C3F30803138058
:10429000836A02338362D2E703685B68DBB2138010
:1042A000836A01338362CAE703685B68826A511CD0
:1042B000816203F07F031370C1E7122380F8393065
:1042C000DAE70220DBE70020D9E7704708B5406A4B
:1042D000FFF7FBFF08BD704708B5406A0023C385A0
:1042E000C384012380F83930C36B43F01003C363E8
:1042F000FFF7F1FF08BD10B582B0044603681968E6
:10430000DA6811F0010F06D002F480721AB1C26BA4
:1043100042F00102C26319685A6902F0010211F009
:10432000020F04D01AB1E16B41F00401E163196896
:1043300011F0040F04D01AB1E16B41F00201E16306
:10434000196811F0080F04D01AB1E26B42F00802AC
:10435000E2631A68DB6803F0200312F0200F00D03C
:10436000ABB923681A68DB6803F0800312F0800F92
:1043700000D083B923681A68DB6803F0400312F0A9
:10438000400F00D05BB9E36B6BB902B010BD2046A3
:10439000FFF740FFE5E72046FFF792FCEAE72046FB
:1043A000FFF7FEFEEFE723681A6801925B6801934E
:1043B000019B012384F839302046FFF78CFFE4E7A6
:1043C00010B58CB00446012815D8032303930023AD
:1043D00004930122059206930793089309920A9386
:1043E0000B9303A9104B53F82400FFF73BFB38B1A4
:1043F00001200CB010BD26210C48FCF7E3FEE4E7D9
:1044000000230193029301A9074B53F82400FFF7FF
:10441000F3FB08B10120ECE7034B53F82400FFF74E
:1044200001FA0020E5E700BF847400085474000816
:1044300010B50446012803D948210548FCF7C2FEFF
:10444000044B53F824301B68586A00B210BD00BFFB
:10445000547400088474000838B504460D460128D9
:1044600003D94D210448FCF7ADFE044B53F824302A
:104470001B685D6238BD00BF547400088474000876
:10448000014B1860704700BFC8050020014B586001
:10449000704700BFC8050020014B9860704700BFFF
:1044A000C8050020014BD860704700BFC805002038
:1044B00010B50446032806D80549064B53F82400D6
:1044C000FDF7B0FC10BD23210348FCF77BFEF3E7AA
:1044D000C8050020B47400088C74000870B5044648
:1044E0000D461646032807D8F2B22946054B53F865
:1044F0002400FDF723FE70BD28210348FCF762FE6F
:10450000F2E700BFB47400088C74000838B50446A4
:104510000D46012803D92B210348FCF753FE034B1A
:1045200053F824305D6038BDC4740008EC74000892
:1045300008B5054B53F82000FEF70CF808B9002029
:1045400008BD0120FCE700BFEC74000800B583B093
:104550000A23009313460A4641000548FEF7BEF8B9
:1045600018B9002003B05DF804FB4FF0FF30F9E705
:10457000D800002008B5094B1B780BB9002008BDF6
:1045800013460A4641000648FEF740F910B9034BAE
:104590001870F4E74FF0FF30F1E700BFD5000020BE
:1045A0001401002008B5094B1B780BB9002008BD89
:1045B00013460A4641000648FEF798F910B9034B26
:1045C0001870F4E74FF0FF30F1E700BFD40000208F
:1045D00014010020014B01221A707047D500002001
:1045E000014B01221A707047D4000020014B586023
:1045F000704700BF50010020014B9860704700BF1A
:104600005001002008B50548FEF752FA08B1012014
:1046100008BD0248FEF79CFA0020F9E7500100208F
:1046200008B50248FEF7A9FA08BD00BF50010020F6
:1046300008B50248FFF723F908BD00BF600100205C
:1046400008B50248FFF71BF908BD00BF6001002054
:1046500038B504460D46022804D8054B53F82430DB
:104660005D6038BD38210348FCF7ACFDF5E700BFBD
:1046700020750008F474000808B5054B53F82000B5
:10468000FFF75EFC08B9002008BD0120FCE700BF71
:104690002075000808B50A4601460448FFF7CCFC1F
:1046A00008B9002008BD4FF0FF30FBE7DC01002017
:1046B00008B582B20448FFF70FFD08B9002008BD15
:1046C0004FF0FF30FBE700BF1C0200200FB400B525
:1046D00083B004A951F8040B019100F0B7F803B0BE
:1046E0005DF804EB04B0704738B505460B4B1C6809
:1046F00002E0012001F024F9094B1B7823B963196A
:10470000064A12689342F4D82C44044B1B689C421E
:1047100001D9002038BD0120FCE700BFA80A002015
:104720005C02002008B56420FFF7DEFF98B90A4B51
:104730001B686BB1084A591C11600A21197007489F
:104740001168091A89B2FFF7A5FF054B00221A70FC
:10475000014B024A1A6008BDD8090020D805002084
:104760005C0200200FB430B583B006AC54F8045B93
:104770006420FFF7B9FF01942146284600F066F84F
:10478000074B1B68074A9B1AB3F5617F04DC03B033
:10479000BDE8304004B07047FFF7C4FFF7E700BF43
:1047A000D8090020D805002008B42DE9F04183B0D5
:1047B00080460E46174609AC54F8045B6420FFF7A8
:1047C00093FF43463A4631460848FFF77FFF01947E
:1047D0002146284600F03AF80548FFF777FFFFF733
:1047E000A1FF03B0BDE8F04101B070472C7500088F
:1047F00058780008014B01221A7070475C020020B3
:1048000010B504460A2807D0094B1B6843B1591C50
:10481000074A11601C7010BD0D20FFF7F1FFF3E790
:10482000044B1B68002BF6D020469847F3E700BFE7
:10483000D8090020DC09002010B5044602E001344C
:10484000FFF7DEFF20780028F9D110BD2DE9F047F1
:1048500086B00646019102E0FFF7D2FF2646741C9F
:104860003078002800F0EC802528F5D1B21C707853
:10487000302804D02D2806D0002500240FE0F21C9B
:10488000B0780125F9E7F21CB0780225F5E704EBD2
:10489000840463001844A0F1300410780132A0F1C0
:1048A0003003DBB2092BF2D96C2803D04C2801D09D
:1048B000164603E045F00405561C1078002800F069
:1048C000BF80602814D9A0F12003DBB2A3F142021B
:1048D000162A41D8DFE802F043333A4040404040D6
:1048E0004040404040464040400E403A40403D003D
:1048F0000346EBE7019B1A1D0192D3F800900027B5
:1049000000E0013719F80730002BFAD103E020202E
:10491000FFF776FF474615F0020F04D107F10108B3
:10492000A742F4D347464846FFF786FF03E020201E
:10493000FFF766FF2F467D1CA742F8D38FE7019B48
:104940001A1D01921878FFF75BFF88E74FF00A0EF7
:104950000AE04FF0100E07E0FFF752FF7FE74FF03D
:10496000020E01E04FF0080E15F0040F08D0019A76
:10497000111D01911168442B0ED04FF0000C20E066
:10498000442B04D0019A111D01911168F3E7019A9B
:10499000111D01911168EEE70029EEDA494245F058
:1049A0000805EAE727273B44DBB20CF10107303367
:1049B0000DF11808E04408F8103C72B10F2F0CD824
:1049C000BC46B1FBFEF20EFB1213DBB21146092B03
:1049D000EBD97828E6D00727E5E715F0080F06D0D1
:1049E00006AB1F442D2307F8103C0CF1020715F00D
:1049F000010F03D04FF0300AB84606E04FF0200A0E
:104A0000FAE75046FFF7FCFEC84615F0020F04D146
:104A100008F10109A045F4D3C846013F06AB3B4469
:104A200013F8100CFFF7ECFE002FF6D103E0202066
:104A3000FFF7E6FEA84608F10105A045F7D30EE70B
:104A400006B0BDE8F08700B583B043788DF8043038
:104A5000DB438DF80530022201A9007800F048F808
:104A600003B05DF804FB000008B542780178024805
:104A7000FFF778FE08BD00BF3C75000808B50020B0
:104A8000FFF79EFC08BD08B50120FFF799FC08BDA3
:104A900008B50020FFF7CCFC044A136818441060E6
:104AA00000210846FFF7D8FC002008BDE0090020DF
:104AB00008B50120FFF7BCFC044A136818441060D5
:104AC00000210120FFF7C8FC002008BDE4090020F8
:104AD00008B5044B1A68044B19680448FFF742FEF6
:104AE000002008BDE4090020E00900204C75000802
:104AF00070B584B005460E461446FFF727FD10B981
:104B0000002004B070BD3378029301940095034BEC
:104B10001B2203490348FFF747FEF1E75C750008D5
:104B20009076000894750008F0B585B006460F46EB
:104B30001546FFF71FFD04460C4B1B781BB14CB903
:104B4000204605B0F0BD0A4B21220A490A48FFF76A
:104B50002BFEF4E73B78029301950096074B222247
:104B600004490748FFF720FEEAE700BF5E02002085
:104B7000F07500089C76000810760008187600088A
:104B800094750008F0B585B006460F461446FFF749
:104B900009FD05460C4B1B781BB14DB9002005B033
:104BA000F0BD0A4B2C220A490A48FFF7FDFDF4E745
:104BB0003B78029301940096074B2D220449074845
:104BC000FFF7F2FDEAE700BF5D02002098750008DC
:104BD000A876000810760008B875000894750008DB
:104BE00010B50024052C0ADC04EB440253001B48DA
:104BF000184400F0B1F8034670B90134F2E700241C
:104C0000002C0BDD164A136801331360012B15DCF1
:104C1000FFF73EFF0346D0B1184610BD114800EB28
:104C20004400FFF710FF03460028F5D10134E7E701
:104C3000E0B200F06DFB70B9013400E00024002CFC
:104C4000F6DD00F0E5FB064B00221A60E0E7FFF717
:104C50002FFF0346E0E70023DEE700BF2800002027
:104C6000E80900202400002010B5002407E004EB30
:104C7000440253001048184400F09AF80134052CFF
:104C8000F5DD002405E00D4800EB4400FFF7ECFEE5
:104C90000134002CF7DD0024002C02DDFFF718FFA3
:104CA00010BD04EB840304EB43030548184400F0F3
:104CB000E3FA0134F0E700BF2800002024000020C0
:104CC0004C00002038B51E490020FFF71FFC0020D3
:104CD000FFF72EFC10B10124204638BD18490120F1
:104CE000FFF714FC0120FFF723FC08B10124F3E7D0
:104CF000FFF7C4FE58B9FFF7C6FE044678B1114B62
:104D0000B62211491148FFF74FFD0124E4E7104B8B
:104D1000AF220D490D48FFF747FD0124DCE70546AA
:104D2000002DD9DC05EB850305EB43030948184446
:104D300000F0ECFA08B90135F2E70124CCE700BF36
:104D4000A086010074760008B87600086C7600082A
:104D5000507600084C00002030B585B005464388E9
:104D60000F4CA4FB0324E408B4F57A7F0ED22A7911
:104D7000230A43EA82038DF80C308DF80D4002229D
:104D800003A92878FFF7B4FE05B030BD027801937F
:104D90000092044B202204490448FFF705FDE6E792
:104DA000CDCCCCCCF07600080877000894750008CC
:104DB00010B5044601780F48FFF7D4FC2379032B84
:104DC00006D8DFE803F0020A0E120B48FFF7CAFC10
:104DD00061880A48FFF7C6FC10BD0948FFF7C2FC0E
:104DE000F6E70848FFF7BEFCF2E70748FFF7BAFC12
:104DF000EEE700BFC8760008D4760008E476000825
:104E0000D8760008DC760008E0760008F8B505469C
:104E10000F464FF416510220FFF71AFC0220FFF74D
:104E20002BFC064608B13046F8BD164B1C683C44C6
:104E300029460820FFF73CFC07E01348FFF792FCE7
:104E40001248FFF78FFCFFF76DFC0E4B1B68A34267
:104E500003D20F4B1B68002BEFD10D4B1B6873B9AE
:104E6000334602E00022EA540133022BFADD032329
:104E700002E04022EA540133062BFADDD3E7012693
:104E8000D1E700BFA80A00201479000814770008B1
:104E90006002002010B4802806D0174B1B68062B38
:104EA0001CDC164AD05402E0134B00221A60124B4D
:104EB0001B68082B1EDC01330F4A1360002010BC56
:104EC00070470E4CA45C2344DBB20132062AF8DDA5
:104ED000434013F07F0F04D1002308E00122002398
:104EE000F4E70220EBE7054AD25CCA540133072BF2
:104EF000F9DDDCE70320E2E7EC090020F0090020FF
:104F0000F8B506460F4B1B68002B0BDC0F46002440
:104F1000072C11DC3946305DFFF7BCFF054658B958
:104F20000134F5E7074A1368013B13600146082086
:104F3000FFF7BEFB002004E031460820FFF7B8FB76
:104F40002846F8BD60020020C378403B3F2B07DCB9
:104F5000C378403B13F13F0F04DBC0784038704703
:104F6000402070476FF03F0070470379403B3F2B74
:104F700007DC0379403B13F13F0F04DB0079403835
:104F80007047402070476FF03F0070474379403BC7
:104F90003F2B07DC4379403B13F13F0F04DB4079A3
:104FA00040387047402070476FF03F00704783796A
:104FB000403B3F2B07DC8379403B13F13F0F04DB81
:104FC000807940387047402070476FF03F0070474D
:104FD000F0B583B00446837803F00303032B06D0B7
:104FE000837813F0010F40F0B980002500E0002520
:104FF0009048FFF7B7FB002D40F0B2808E48FFF7D6
:10500000B1FB002D40F0B080A37803F00303032B25
:1050100000F0B380A37813F0020F40F0A9800025C0
:105020008648FFF79FFB002D40F0A980A37803F08E
:105030000C030C2B00F0AC80A37813F0040F40F0AD
:10504000A28000257E48FFF78DFB002D40F0A28056
:10505000A37803F00C030C2B00F0A580A37813F0C9
:10506000080F40F09B8000257648FFF77BFB002D62
:1050700040F09B80637813F0010540F09A807248FD
:10508000FFF770FB002D40F09880A37813F0200507
:1050900040F097806D48FFF765FB002D40F095804C
:1050A000A37813F0400540F094806948FFF75AFB5D
:1050B000002D40F09280A37813F0100540F091800D
:1050C0006448FFF74FFB002D40F08F80637813F0AA
:1050D000020540F08E806048FFF744FB002D40F051
:1050E0008C80637813F0040540F08B805B48FFF7F9
:1050F00039FB002D40F08980637813F0080540F0FB
:1051000088805748FFF72EFB002D40F0868063789B
:1051100013F0100540F085805248FFF723FB002D67
:1051200040F083805048FFF71DFB2046FFF70CFF3F
:1051300005462046FFF719FF06462046FFF726FFE3
:1051400007462046FFF733FF00903B46324629468C
:105150004648FFF707FB002003B0F0BD012547E7F5
:105160004348FFF7FFFA49E74248FFF7FBFA4BE7EE
:105170003F48FFF7F7FA012552E7002550E73D4881
:10518000FFF7F0FA52E73A48FFF7ECFA012559E742
:10519000002557E73748FFF7E5FA59E73448FFF7A6
:1051A000E1FA012560E700255EE73248FFF7DAFA09
:1051B00060E72F48FFF7D6FA61E72E48FFF7D2FAEB
:1051C00063E72B48FFF7CEFA64E72A48FFF7CAFAED
:1051D00066E72748FFF7C6FA67E72648FFF7C2FAEF
:1051E00069E72348FFF7BEFA6AE72248FFF7BAFAF1
:1051F0006CE71F48FFF7B6FA6DE71E48FFF7B2FAF3
:105200006FE71B48FFF7AEFA70E71A48FFF7AAFAF4
:1052100072E71748FFF7A6FA73E71648FFF7A2FAF6
:1052200075E71348FFF79EFA76E71248FFF79AFAF8
:1052300078E700BF18770008307700084877000843
:1052400050770008587700086077000868770008F2
:105250006C770008747700087C7700088477000872
:105260008C77000894770008587800089C7700082D
:10527000207700083877000838B50446427801786E
:105280001D48FFF76FFAA37A042B11D0052B1BD012
:1052900033B300252CE0631999781848FFF762FAB8
:1052A00001356378AB42F6DC1548FFF75BFA38BD91
:1052B0000025F6E7631999781248FFF753FA01358C
:1052C0006378AB42F6DCEFE70025F9E763199978DC
:1052D0000C48FFF747FA01356378AB42F6DCE3E7A9
:1052E0000025F9E7631999780748FFF73BFA01357C
:1052F0006378AB42F6DCD7E7B4770008C4770008E0
:1053000058780008CC770008D47700080020704750
:105310000B4B19684B1C5A4203F01F0302F01F028B
:1053200058BF5342074A12689A4206D0064A42F8CA
:105330002100034A1360002070474FF0FF30704790
:105340007C0A0020F8090020FC0900200A4B1B6899
:105350000A4A126893420DD0094A52F8232002707B
:1053600001335A4203F01F0302F01F0258BF534299
:10537000014A136000207047F80900207C0A0020D1
:10538000FC090020054B1A68054B1B689A4201D0A6
:10539000002070474FF0FF30704700BF7C0A0020AC
:1053A000F809002008B50346014611F8020B5A78A7
:1053B000FFF7E8FB08BD08B50346014611F8020BEC
:1053C0005A78FFF7DFFB08BD08B50346014611F820
:1053D000020B5A78FFF7D6FB08BD08B50346014615
:1053E00011F8020B5A78FFF7CDFB08BD08B503464C
:1053F000014611F8020B5A78FFF796FB08BD08B575
:105400000346014611F8020B5A78FFF7BBFB08BDB3
:1054100008B5484B1B7843B9FFF7B4FF10B1002320
:10542000184608BD4448FFF791FF434B187800EB3E
:10543000800300EB4302414B13449B7ADBB2052B04
:1054400074D8DFE803F0031E2E3E63033C4A52F893
:105450002030013342F82030364A1278002A67D1D2
:10546000012B01DC0023DBE7354B43F8202000EB68
:10547000800300EB4300314B1844FFF793FF0346D2
:10548000CEE72C4B1B78012B01D90023C8E700EB9A
:10549000800300EB4300294B1844FFF78CFF0346C1
:1054A000BEE7244B1B78012B01D90023B8E700EBA2
:1054B000800300EB4300214B1844FFF785FF0346B0
:1054C000AEE71C4B1B781BB1012B10D00023A7E7C4
:1054D00000EB800300EB4300184B1844FFF786FFF6
:1054E000034600289CD1134A0121117098E700EB74
:1054F000800300EB4300114B1844FFF76EFF034697
:1055000000288DD10B4A0021117089E7094B1B78C7
:10551000012B01D9002383E700EB800300EB43005C
:10552000064B1844FFF76BFF034679E7002377E744
:10553000002375E7A00A0020A10A00204C000020EB
:10554000800A00200020704700B595B009230A9317
:105550004FF480330B9300220C920122109202220E
:10556000119212934FF4E01313930AA8FDF72CFB4A
:1055700048BB0F23059302210691002307934FF4A4
:1055800080620892099305A8FDF7F8FE30BB02235C
:1055900001934FF40043039301A8FEF771F830BB69
:1055A000FEF73CF84FF47A73B0FBF3F0FCF7DCF94C
:1055B0000420FCF7EFF9002211464FF0FF30FCF712
:1055C00077F9002007E00E4B40F21D120D490E48FE
:1055D000FFF7EAF8012015B05DF804FB0B4B4FF420
:1055E000947208490848FFF7DFF80120F3E7084BF9
:1055F00040F22F1203490448FFF7D6F80120EAE7EA
:10560000E4770008AC78000894750008F477000887
:105610000878000800B585B0224B9A6942F0040270
:105620009A619A6902F004020092009A9A6942F023
:1056300008029A619A6902F008020192019A9A6935
:1056400042F010029A619A6902F010020292029AE4
:105650009A6942F020029A619B6903F02003039348
:10566000039B4FF40050FEF70BFF0020FEF70EFFE8
:105670000020FEF711FF0220FEF71AFF2020FEF7A0
:10568000FFFE0120FEF702FF0220FEF70BFF0020C5
:10569000FEF70EFF002220211046FEF71FFF05B087
:1056A0005DF804FB0010024038B5FCF7B5F810B106
:1056B0000124204638BDFFF747FF08B10124F8E771
:1056C0000120FEF7D9FF4FF416510220FEF7C0FF6C
:1056D0000220FEF7D1FFFFF725F8FFF7F3FA0446A3
:1056E0000028E6D1FFF796FFFBF79CFC1A4BDD2262
:1056F0001A491B48FFF758F81A491B48FFF786FB61
:10570000D0B9164D164C194BFA2229462046FFF700
:105710004BF8174BFE2229462046FFF745F802209A
:10572000FEF764FFFA20FEF767FFFEF76BFF044603
:1057300050B9FBF777FCBCE70E4BE72207490E4850
:10574000FFF732F80124B4E70C4B40F2031229466C
:105750000948FFF729F8ACE724780008A478000886
:1057600040780008A0860100AC0A00205C780008A0
:105770007078000844780008947500088078000864
:1057800008B5FBF755FC08BD08B5FFF729FA08BDB9
:1057900030B583B0FFF788FF78B90A20FFF7D2FE53
:1057A0000446B8B10090504B412250495048FEF792
:1057B000FBFF6420FEF798FF09E000904D4B3A2272
:1057C0004A494B48FEF7F0FF6420FEF78DFF0120A9
:1057D00003B030BD484B00221A60484B4922434970
:1057E0004748FEF7E1FF4748FEF7BCFFFEF79AFF88
:1057F00052E045490820FEF75BFF444B00221A7037
:105800005DE0414B595D4248FEF7ACFF0135072D85
:10581000F7DD4048FEF7A6FF234604E03A4AD15C94
:105820003D4AD1540133072BF8DD334B1A683B4B0B
:10583000A3FB02139B094FF47A7101FB1323002B86
:105840003FD03748FEF78EFF3648FFF7C1FBFFF722
:105850000BFAFEF767FF284B1968334BA3FB0123B4
:10586000DB0803EB83035A008B1A042BF3D1FFF7F9
:105870008BFF50BB204B19682B4BA3FB0123DB088C
:1058800003EB83035A009142F4D1284B1A6801328A
:105890001A601B68132B20D8FEF7C2FEFFF770FFBB
:1058A000154B1A68224BA3FB02135B09642101FB11
:1058B0001323092BCFD8154B1B78002B99D12546E4
:1058C000A5E71C48FEF74EFFBBE700901A4B7D2270
:1058D00006490748FEF768FF79E7184B8F2203490E
:1058E0000348FEF761FFFEE7E87800089C780008AF
:1058F00094750008D4780008A80A002004790008EC
:105900004078000810790008BC0A002064020020DA
:105910001C79000858780008B40A0020D34D6210A2
:1059200014790008AC0A0020CDCCCCCCA40A00200D
:105930001F85EB51247900082C790008487900086C
:1059400010B582B00446084B1B68019301E0FEF7D6
:1059500067FE019B2344044A12689342F7D8FEF77E
:105960005FFE02B010BD00BFA80A002008B50A49BA
:105970000A48FFF7C5FA30B9094B00221A60094BF3
:1059800001221A7008BD084B40F26312074908480B
:10599000FEF70AFFF0E700BFAC0A0020C40A0020AF
:1059A000A40A002064020020DC770008BC7800080C
:1059B0009475000808B5FEF71DFF08BD08B5FEF791
:1059C00009FEFFF725FD08BD08B5FEF709FEFFF744
:1059D0001FFD08BD002103E00B4B5B584350043111
:1059E0000A480B4B42189A42F6D30A4A02E00023B7
:1059F00042F8043B084B9A42F9D3FBF7D3FE01F07F
:105A0000EFFAFFF7C5FE7047487B00080000002052
:105A1000CC020020CC020020CC0A0020FEE70000CF
:105A200030B5214A21F00043934287B01BDD1F4A65
:105A3000934205DD02460B46FAF78EFB07B030BDF8
:105A400002AA00F0DDF800F00300012811D00228BE
:105A500020D0C0B1DDE90423DDE902010124009476
:105A600001F0FAF8EAE70022002300F0A9FB07B0F2
:105A700030BD0090DDE90423DDE9020101F0ECF81E
:105A800001F10041DAE7DDE90423DDE9020100F07C
:105A900097FBD3E7DDE90423DDE9020100F090FB89
:105AA00001F10041CAE700BFFB21E93FFFFFEF7FA3
:105AB00030B5214A21F00043934287B01BDD1F4AD5
:105AC000934205DD02460B46FAF746FB07B030BDB0
:105AD00002AA00F095F800F00300012813D0022874
